:100000000C9432000C94A0030C94C9030C94F203DA
:100010000C944F000C944F000C944F000C944F0024
:100020000C944F000C944F000C944F000C944F0014
:100030000C944F000C944F000C944F000C944F0004
:100040000C945C080C944F000C944F000C944F00DF
:100050000C944F00AD07B707C107CB07D507DF07E3
:10006000E907F30711241FBECFE5D8E0DEBFCDBFFF
:1000700010E0A0E6B0E0E6E7FFE102C005900D92D7
:10008000A03AB107D9F720E0A0EAB0E001C01D9284
:10009000A53BB207E1F70E9451000C94B90F0C94F4
:1000A00000000E942D0180E090E008950E941B0452
:1000B0000E94F5080E94410A209180003091810041
:1000C000409182005091830060918400709185007E
:1000D000809186000E946A0980E00E94AD0908951F
:1000E0008931910540F464E670E080E00E94D20915
:1000F00080E090E008959C012951310925303105B7
:1001000040F464E670E08CE40E94D2098EE190E055
:1001100008954E97059740F464E670E080E80E94E9
:10012000D20982E390E0089564E670E08DEC0E94CD
:10013000D20980E590E00895AF92BF92CF92DF920E
:10014000EF92FF920F931F93CF93DF93CDB7DEB75C
:10015000C054D1090FB6F894DEBF0FBECDBFB62E86
:10016000A72E2DE0E0E6F0E0DE01119601900D9261
:100170002A95E1F7FE013E9623E0DF011D922A95C4
:10018000E9F72CE0E0E7F0E0DE01519601900D92F6
:100190002A95E1F7FE017D9624E0DF011D922A9564
:1001A000E9F720E17E01B1E2EB0EF11CF701322FFD
:1001B00011923A95E9F78E010F5C1F4FD8011D92FD
:1001C0002A95E9F79F938F930F2EFDE8CF2EF0E04D
:1001D000DF2EF02DDF92CF92FF92EF920E94CF0C94
:1001E000AF92BF92DF92CF921F930F930E94CF0CDA
:1001F0000E943109CE0101960E945909C7010E944F
:10020000590980E990E00E9459090E946609CE01CF
:1002100041960E945909C8010E9459098BE990E052
:100220000E9459098CE291E00E949C040FB6F89458
:10023000DEBF0FBECDBFC05CDF4F0FB6F894DEBF90
:100240000FBECDBFDF91CF911F910F91FF90EF9027
:10025000DF90CF90BF90AF9008950E9456000FEFAF
:100260001FEF01C08E010E94660AEC0108171907F2
:10027000C9F30E947000BC01CE010E949C00F2CF25
:10028000813001F130F08230B1F1833009F44CC09B
:10029000089541110CC02AB381E090E002C0880F9C
:1002A000991F6A95E2F7809582238ABB08952AB345
:1002B00081E090E002C0880F991F6A95E2F7822BD7
:1002C0008ABB089541110CC027B381E090E002C0C1
:1002D000880F991F6A95E2F78095822387BB08955E
:1002E00027B381E090E002C0880F991F6A95E2F77A
:1002F000822B87BB089541110CC024B381E090E0AC
:1003000002C0880F991F6A95E2F78095822384BB0B
:10031000089524B381E090E002C0880F991F6A9588
:10032000E2F7822B84BB089541110CC021B381E018
:1003300090E002C0880F991F6A95E2F780958223AA
:1003400081BB089521B381E090E002C0880F991F1E
:100350006A95E2F7822B81BB0895813001F130F07C
:100360008230B1F1833009F44CC0089541110CC0C2
:100370002BB381E090E002C0880F991F6A95E2F7E5
:10038000809582238BBB08952BB381E090E002C05F
:10039000880F991F6A95E2F7822B8BBB0895411154
:1003A0000CC028B381E090E002C0880F991F6A95C5
:1003B000E2F78095822388BB089528B381E090E01E
:1003C00002C0880F991F6A95E2F7822B88BB0895B7
:1003D00041110CC025B381E090E002C0880F991F45
:1003E0006A95E2F78095822385BB089525B381E065
:1003F00090E002C0880F991F6A95E2F7822B85BBB7
:10040000089541110CC022B381E090E002C0880F32
:10041000991F6A95E2F78095822382BB089522B3E3
:1004200081E090E002C0880F991F6A95E2F7822B65
:1004300082BB0895813089F028F08230C9F0833082
:1004400011F108952BB381E090E002C0880F991F4D
:100450006A95E2F782278BBB089528B381E090E08C
:1004600002C0880F991F6A95E2F7822788BB08951A
:1004700025B381E090E002C0880F991F6A95E2F7EA
:10048000822785BB089522B381E090E002C0880FE7
:10049000991F6A95E2F7822782BB0895813069F03F
:1004A00028F0823089F08330B1F00895611102C0E4
:1004B0001ABA08958FEF8ABB0895611102C017BA66
:1004C00008958FEF87BB0895611102C014BA089593
:1004D0008FEF84BB0895611102C011BA08958FEFA8
:1004E00081BB0895813041F028F0823039F08330AB
:1004F00039F008956BBB089568BB089565BB0895F6
:1005000062BB08958130D1F028F0823059F18330F8
:10051000E9F150C049B381E090E09C01062E02C091
:10052000220F331F0A94E2F7842F90E08223932353
:1005300002C0959587956A95E2F7089546B381E0E4
:1005400090E09C01062E02C0220F331F0A94E2F7AE
:10055000842F90E08223932302C0959587956A9516
:10056000E2F7089543B381E090E09C01062E02C0BB
:10057000220F331F0A94E2F7842F90E08223932303
:1005800002C0959587956A95E2F7089540B381E09A
:1005900090E09C01062E02C0220F331F0A94E2F75E
:1005A000842F90E08223932302C0959587956A95C6
:1005B000E2F7089580E00895813051F028F082300C
:1005C00059F0833069F008958BB380958BBB089503
:1005D00088B3809588BB089585B3809585BB0895C1
:1005E00082B3809582BB0895813041F028F082303B
:1005F00039F0833039F008C089B3089586B308957F
:1006000083B3089580B3089580E008958FB78F77FE
:100610008FBF08958FB780688FBF0895CF93DF9302
:1006200000D000D000D0CDB7DEB749835A836B83AA
:100630007C838D839E838FB780688FBF898186304E
:1006400031F58BB780648BBF8C81811107C085B772
:100650008E7F85BF85B78D7F85BF1CC0833039F401
:1006600085B7816085BF85B78D7F85BF13C0813019
:1006700039F485B78E7F85BF85B7826085BF0AC094
:1006800085B7816085BF85B7826085BF03C08BB7A2
:100690008F7B8BBF8A81873031F58BB780688BBFAA
:1006A0008D81811107C085B78B7F85BF85B7877F17
:1006B00085BF1CC0833039F485B7846085BF85B79A
:1006C000877F85BF13C0813039F485B78B7F85BFA5
:1006D00085B7886085BF0AC085B7846085BF85B748
:1006E000886085BF03C08BB78F778BBF8B818530C8
:1006F00071F48BB780628BBF8D81823021F484B717
:10070000806484BF07C084B78F7B84BF03C08BB76E
:100710008F7D8BBF26960FB6F894DEBF0FBECDBF80
:10072000DF91CF9108959093A5008093A4007093DA
:10073000A3006093A2005093A1004093A0000895ED
:100740001F920F920FB60F9211242F933F934F9346
:100750005F936F937F938F939F93AF93BF93EF9329
:10076000FF93E091A400F091A500309709F009955E
:10077000FF91EF91BF91AF919F918F917F916F9179
:100780005F914F913F912F910F900FBE0F901F904F
:1007900018951F920F920FB60F9211242F933F932B
:1007A0004F935F936F937F938F939F93AF93BF9379
:1007B000EF93FF93E091A200F091A300309709F02E
:1007C0000995FF91EF91BF91AF919F918F917F918B
:1007D0006F915F914F913F912F910F900FBE0F90AE
:1007E0001F9018951F920F920FB60F9211242F93FE
:1007F0003F934F935F936F937F938F939F93AF93A9
:10080000BF93EF93FF93E091A000F091A100309788
:1008100009F00995FF91EF91BF91AF919F918F9151
:100820007F916F915F914F913F912F910F900FBEEC
:100830000F901F90189583B78F7B83BF83B7886015
:1008400083BF089583B78E7F83BF83B78D7F83BFB8
:1008500083B78B7F83BF08958830910589F160F459
:100860008230910509F454C08330910509F45AC0CF
:10087000019709F060C01AC0883F910569F020F423
:100880008034910539F10895811521E0920761F1D5
:100890008115944099F1089583B78E7F83BF83B704
:1008A0008D7F83BF83B78B7F83BF089583B78160BC
:1008B00083BF83B78D7F83BF83B78B7F83BF08954B
:1008C00083B78E7F83BF83B7826083BF83B78B7FFD
:1008D00083BF089583B7816083BF83B7826083BF7E
:1008E00083B78B7F83BF089583B78E7F83BF83B722
:1008F0008D7F83BF83B7846083BF089583B7816092
:1009000083BF83B78D7F83BF83B7846083BF089520
:1009100083B78E7F83BF83B7826083BF83B78460D2
:1009200083BF089583B7816083BF83B7826083BF2D
:1009300083B7846083BF08959C018AEF8CBF83B71F
:10094000816083BF83B7826083BF83B78B7F83BFA0
:1009500008C008B601FEFDCF98B7926098BF21503D
:10096000310921153105A9F70E94220408959C013F
:1009700080E18CBF83B7816083BF83B78D7F83BFE6
:1009800083B78B7F83BF08C008B601FEFDCF98B741
:10099000926098BF2150310921153105A9F70E94B5
:1009A000220408958FB58E7F8FBD8FB582608FBD75
:1009B0008EB5877F8EBD8EB580618EBD08958034E3
:1009C000910519F130F48130910559F0089799F0AB
:1009D0000895811521E0920711F18115944049F1A4
:1009E00008958EB581608EBD8EB58D7F8EBD8EB51E
:1009F0008B7F8EBD08958EB58E7F8EBD8EB5826045
:100A00008EBD8EB58B7F8EBD08958EB581608EBDF7
:100A10008EB582608EBD8EB58B7F8EBD08958EB5EE
:100A20008E7F8EBD8EB58D7F8EBD8EB584608EBD62
:100A300008958EB581608EBD8EB58D7F8EBD8EB5CD
:100A400084608EBD08958F929F92AF92BF92CF9295
:100A5000DF92EF92FF920F931F93CF93DF93B82E05
:100A60006A017B0181B3806281BB8FB580648FBDD9
:100A70008FB580688FBD82B38F7D82BB9A01AB0139
:100A8000220F331F441F551F60E074E284EF90E093
:100A90000E94840A211531054140510508F464C0C3
:100AA000D701C601880F991FAA1FBB1F880F991F66
:100AB000AA1FBB1F9C01AD01220F331F441F551FEE
:100AC000220F331F441F551F60E074E284EF90E053
:100AD0000E94840A211531054140510508F447C0A0
:100AE000D701C601880F991FAA1FBB1F880F991F26
:100AF000AA1FBB1F880F991FAA1FBB1F880F991F12
:100B0000AA1FBB1F880F991FAA1FBB1F880F991F01
:100B1000AA1FBB1F9C01AD01220F331F441F551F8D
:100B200060E074E284EF90E00E94840A21153105B0
:100B300041405105F8F060E074E284EF90E0A701D5
:100B40009601012E19E0220F331F441F551F1A95DD
:100B5000D1F7102D0E94840A21153105414051051D
:100B600060F400E011E00BC001E010E008C008E014
:100B700010E005C000E410E002C000E014E0D8017D
:100B8000A70196010E94AC0A9B01AC01220F331F02
:100B9000441F551F60E074E284EF90E00E94840AD5
:100BA000F22EE32EC22FD32F6B2D70E080E090E069
:100BB0000E94D40B20E030E04FE753E40E94330B57
:100BC0009B01AC0160E070E080E89FE30E94C60AF0
:100BD0004B015C01BE0180E090E00E94D40BA501B6
:100BE00094010E94620C0E94A50B7BBD6ABDE7BC0C
:100BF000F6BCC8010E94DF04DF91CF911F910F91D5
:100C0000FF90EF90DF90CF90BF90AF909F908F902C
:100C100008958F929F92AF92BF92CF92DF92EF9200
:100C2000FF920F931F93CF93DF93B82E6A017B013E
:100C300081B3806181BB8FB580618FBD8FB58062CC
:100C40008FBD82B38F7E82BB9A01AB01220F331F0F
:100C5000441F551F60E074E284EF90E00E94840A14
:100C6000211531054140510508F464C0D701C60182
:100C7000880F991FAA1FBB1F880F991FAA1FBB1F90
:100C80009C01AD01220F331F441F551F220F331F3C
:100C9000441F551F60E074E284EF90E00E94840AD4
:100CA000211531054140510508F447C0D701C6015F
:100CB000880F991FAA1FBB1F880F991FAA1FBB1F50
:100CC000880F991FAA1FBB1F880F991FAA1FBB1F40
:100CD000880F991FAA1FBB1F880F991FAA1FBB1F30
:100CE0009C01AD01220F331F441F551F60E074E2C9
:100CF00084EF90E00E94840A21153105414051059E
:100D0000F8F060E074E284EF90E0A7019601012E14
:100D100019E0220F331F441F551F1A95D1F7102DCC
:100D20000E94840A211531054140510560F400E01C
:100D300011E00BC001E010E008C008E010E005C0C1
:100D400000E410E002C000E014E0D801A701960121
:100D50000E94AC0A9B01AC01220F331F441F551F98
:100D600060E074E284EF90E00E94840AF22EE32EA9
:100D7000C22FD32F6B2D70E080E090E00E94D40B47
:100D800020E030E04FE753E40E94330B9B01AC01BD
:100D900060E070E080E89FE30E94C60A4B015C01BE
:100DA000BE0180E090E00E94D40BA50194010E9456
:100DB000620C0E94A50B79BD68BDE7BCF6BCC801FA
:100DC0000E94DF04DF91CF911F910F91FF90EF9070
:100DD000DF90CF90BF90AF909F908F90089586B195
:100DE000816086B986B1826086B986B1846086B931
:100DF0000895813059F018F0833079F0089587B163
:100E00008F7B87B987B18F7787B9089587B1806461
:100E100087B987B18F7787B9089587B1806487B91B
:100E200087B1806887B90895882319F0813049F027
:100E3000089587B1806287B91092A9001092A80026
:100E4000089587B18F7D87B981E090E09093A900E4
:100E50008093A800089597B1982B97B9882361F0E3
:100E6000883051F0893041F08A3031F08B3021F0F8
:100E7000803111F0883119F49AB39E7F9ABB81308A
:100E8000B1F08930A1F08B3091F0803181F0813167
:100E900071F0823161F0833151F0843141F085315C
:100EA00031F0863121F0873111F0893119F49AB38C
:100EB0009D7F9ABB8230B1F08C30A1F08D3091F0E3
:100EC0008E3081F08F3071F0823161F0883151F0D5
:100ED000893141F08A3131F08B3121F08C3111F0C0
:100EE0008D3119F49AB39B7F9ABB833041F08D30DA
:100EF00031F08F3021F0833111F08B3119F49AB336
:100F0000977F9ABB843021F0843111F08C3119F431
:100F10009AB39F7E9ABB853021F0853111F08D31D7
:100F200019F49AB39F7D9ABB863011F0863119F47B
:100F30009AB39F7B9ABB873011F0873119F48AB33B
:100F40008F778ABB089590E08830910508F054C0EF
:100F5000FC01E65DFF4F0C94A60A80B78F7D80BF31
:100F600080B78F7B80BF80B78F7780BF089580B7B1
:100F7000806280BF80B78F7B80BF80B78F7780BF54
:100F8000089580B78F7D80BF80B7806480BF80B7B1
:100F90008F7780BF089580B7806280BF80B78064FC
:100FA00080BF80B78F7780BF089580B78F7D80BF67
:100FB00080B78F7B80BF80B7806880BF089580B77F
:100FC000806280BF80B78F7B80BF80B7806880BF22
:100FD000089580B78F7D80BF80B7806480BF80B761
:100FE000806880BF089580B7806280BF80B78064CA
:100FF00080BF80B7806880BF0895CF93DF9300D013
:1010000000D000D0CDB7DEB749835A836B837C8391
:101010008D839E8386B1806886B90E94EF068981A0
:101020000E94F9068A810E9414078B810E942B0777
:101030008D81813031F486B1806286B98E810E94C3
:10104000A3078C81813031F48FB780688FBF86B160
:10105000886086B926960FB6F894DEBF0FBECDBF66
:10106000DF91CF9108958091A8009091A900892BDC
:1010700061F484B195B10024880F991F001C880F7A
:10108000991F001C892F902D089584B195B1089562
:101090009C0196B1906496B9349BFECF96B1906155
:1010A00096B9C9010E9433080895009721F09093E2
:1010B000A7008093A60008951F920F920FB60F927B
:1010C00011242F933F934F935F936F937F938F934D
:1010D0009F93AF93BF93EF93FF9360E070E080E046
:1010E00090E00E9433089093AB008093AA008AB3EB
:1010F00080688ABB8BB380588BBB86B1806486B90D
:10110000FF91EF91BF91AF919F918F917F916F91DF
:101110005F914F913F912F910F900FBE0F901F90B5
:10112000189541E062E080E00E94AD0181E090E02E
:101130000E94B70440E062E080E00E94AD010895A3
:10114000EF92FF920F931F93CF93DF93482F41703D
:10115000982F9270E92EF12CF594E794082F0470E3
:1011600010E015950795159507958870C82FD0E064
:10117000D595C795D595C795D595C79560E081E07C
:101180000E94AD014E2D61E081E00E94AD01402F33
:1011900062E081E00E94AD014C2F64E081E00E949A
:1011A000AD01DF91CF911F910F91FF90EF900895C6
:1011B000CF93C82FCF7082958F700E94A00840E017
:1011C00063E080E00E94AD010E94910884E690E017
:1011D0000E94B7048C2F0E94A0080E94910884E608
:1011E00090E00E94B704CF9108950E941B0441E053
:1011F00060E081E00E94400141E061E081E00E9406
:10120000400141E062E081E00E94400141E064E091
:1012100081E00E94400141E063E080E00E944001E3
:1012200041E062E080E00E94400140E062E080E056
:101230000E94AD0183E30E94D80882E30E94D8088F
:1012400088E20E94D8088EE00E94D80881E00E94BF
:10125000D80880ED97E00E94B70486E00E94D80885
:10126000089581E00E94D80883E00E94D80880EDAC
:1012700097E00E94B7040895CF93C82FCF7082954E
:101280008F700E94A00841E063E080E00E94AD0101
:101290000E94910884E690E00E94B7048C2F0E947F
:1012A000A0080E94910884E690E00E94B704CF91C4
:1012B0000895CF93DF93EC0103C00E943C0921966F
:1012C00088818111FACFDF91CF91089580EC0E943F
:1012D000D80808951F93CF93DF93CDB7DEB7279734
:1012E0000FB6F894DEBF0FBECDBF29833A834B8380
:1012F0005C836D837E838F8387E0FE013196ACEA49
:10130000B0E001900D928A95E1F78981813059F41E
:101310001B8141E06C81812F0E94400141E06D8181
:10132000812F0E9440018A81813059F41B8141E064
:101330006E81812F0E94400141E06F81812F0E94C8
:1013400040010E94D20427960FB6F894DEBF0FBE6C
:10135000CDBFDF91CF911F910895CF93DF9381117E
:101360000FC0CCEAD0E041E06B818A810E94AD01E0
:1013700040E06C818A810E94AD011092B3000FC0E1
:10138000CCEAD0E040E06B818A810E94AD0141E06F
:101390006C818A810E94AD0181E08093B300DF916E
:1013A000CF9108951F93CF93DF93182FEB018111F5
:1013B0000DC0CCEAD0E040E06B818A810E94AD0193
:1013C00040E06C818A810E94AD010AC08091B30027
:1013D0000E94AD09AE0160E070E0812F0E942305FC
:1013E000DF91CF911F910895CF93DF9381110FC0AB
:1013F000CCEAD0E041E06D818A810E94AD0140E0FD
:101400006E818A810E94AD011092B4000FC0CCEAB7
:10141000D0E040E06D818A810E94AD0141E06E81A3
:101420008A810E94AD0181E08093B400DF91CF9169
:101430000895CF93DF9381110DC0CCEAD0E040E056
:101440006D818A810E94AD0140E06E818A810E9497
:10145000AD0109C0AB0160E070E00E940906809117
:10146000B4000E94F409DF91CF91089560E070E02C
:1014700080E090E00E9433089093AB008093AA0034
:101480000895CF93DF9300D000D000D0CDB7DEB762
:1014900086E0E7E8F0E0DE01119601900D928A9572
:1014A000E1F749815A816B817C818D819E810E9407
:1014B000FD0786E39AE00E94550826960FB6F89439
:1014C000DEBF0FBECDBFDF91CF910895CF93DF93E5
:1014D00000D0CDB7DEB7BE016E5F7F4FCE01019663
:1014E0000E94480896958795969587950F900F903E
:1014F000DF91CF9108958091AA009091AB009695CD
:101500008795969587950895A1E21A2EAA1BBB1B75
:10151000FD010DC0AA1FBB1FEE1FFF1FA217B307BF
:10152000E407F50720F0A21BB30BE40BF50B661FD5
:10153000771F881F991F1A9469F760957095809599
:1015400090959B01AC01BD01CF010895EE0FFF1FE7
:101550000590F491E02D09940E94B70AA59F900D83
:10156000B49F900DA49F800D911D11240895A29FFA
:10157000B001B39FC001A39F700D811D1124911D67
:10158000B29F700D811D1124911D08955058BB27E5
:10159000AA270E94DE0A0C94280C0E941A0C38F02C
:1015A0000E94210C20F039F49F3F19F426F40C948A
:1015B000170C0EF4E095E7FB0C94110CE92F0E9438
:1015C000390C58F3BA17620773078407950720F0A0
:1015D00079F4A6F50C945B0C0EF4E0950B2EBA2F63
:1015E000A02D0B01B90190010C01CA01A001112429
:1015F000FF27591B99F0593F50F4503E68F11A16D5
:10160000F040A22F232F342F4427585FF3CF469565
:1016100037952795A795F0405395C9F77EF41F1687
:10162000BA0B620B730B840BBAF09150A1F0FF0F51
:10163000BB1F661F771F881FC2F70EC0BA0F621F3D
:10164000731F841F48F4879577956795B795F7952D
:101650009E3F08F0B0CF9395880F08F09927EE0FC2
:101660009795879508950E94470B0C94280C0E942B
:10167000210C58F00E941A0C40F029F45F3F29F029
:101680000C94110C51110C945C0C0C94170C0E94CE
:10169000390C68F39923B1F3552391F3951B550B3E
:1016A000BB27AA2762177307840738F09F5F5F4F35
:1016B000220F331F441FAA1FA9F335D00E2E3AF074
:1016C000E0E832D091505040E695001CCAF72BD08C
:1016D000FE2F29D0660F771F881FBB1F26173707DD
:1016E0004807AB07B0E809F0BB0B802DBF01FF270F
:1016F00093585F4F3AF09E3F510578F00C94110CCF
:101700000C945C0C5F3FE4F3983ED4F38695779598
:101710006795B795F7959F5FC9F7880F911D9695C7
:10172000879597F90895E1E0660F771F881FBB1F23
:10173000621773078407BA0720F0621B730B840BD0
:10174000BA0BEE1F88F7E09508950E94410C88F0CF
:101750009F5798F0B92F9927B751B0F0E1F0660F75
:10176000771F881F991F1AF0BA95C9F714C0B130B6
:1017700091F00E945B0CB1E008950C945B0C672F14
:10178000782F8827B85F39F0B93FCCF386957795E5
:101790006795B395D9F73EF49095809570956195CE
:1017A0007F4F8F4F9F4F0895E89409C097FB3EF4F9
:1017B00090958095709561957F4F8F4F9F4F99239E
:1017C000A9F0F92F96E9BB279395F695879577951C
:1017D0006795B795F111F8CFFAF4BB0F11F460FFDC
:1017E0001BC06F5F7F4F8F4F9F4F16C0882311F034
:1017F00096E911C0772321F09EE8872F762F05C048
:10180000662371F096E8862F70E060E02AF09A95E2
:10181000660F771F881FDAF7880F9695879597F9D7
:10182000089597F99F6780E870E060E008959FEF62
:1018300080EC089500240A94161617061806090667
:10184000089500240A941216130614060506089536
:10185000092E0394000C11F4882352F0BB0F40F4BE
:10186000BF2B11F460FF04C06F5F7F4F8F4F9F4FFE
:10187000089557FD9058440F551F59F05F3F71F080
:101880004795880F97FB991F61F09F3F79F08795E7
:101890000895121613061406551FF2CF4695F1DF70
:1018A00008C0161617061806991FF1CF8695710500
:1018B000610508940895E894BB2766277727CB0134
:1018C00097F908950E94750C0C94280C0E941A0C2C
:1018D00038F00E94210C20F0952311F00C94110C8B
:1018E0000C94170C11240C945C0C0E94390C70F3AE
:1018F000959FC1F3950F50E0551F629FF001729FB5
:10190000BB27F00DB11D639FAA27F00DB11DAA1FC3
:10191000649F6627B00DA11D661F829F2227B00D10
:10192000A11D621F739FB00DA11D621F839FA00D9B
:10193000611D221F749F3327A00D611D231F849FEB
:10194000600D211D822F762F6A2F11249F57504042
:101950009AF0F1F088234AF0EE0FFF1FBB1F661FBD
:10196000771F881F91505040A9F79E3F510580F086
:101970000C94110C0C945C0C5F3FE4F3983ED4F390
:10198000869577956795B795F795E7959F5FC1F72A
:10199000FE2B880F911D9695879597F90895AEE0D7
:1019A000B0E0E5EDFCE00C94900F0D891E8986E017
:1019B0008C831A8309838FEF9FE79E838D83AE010B
:1019C000475E5F4F6F89788DCE0101960E94F10CC2
:1019D000EF81F885E00FF11F10822E96E4E00C9461
:1019E000AC0FABE0B0E0E7EFFCE00C94820F6C01D1
:1019F0007B018A01FC0117821682838181FFCCC1A1
:101A0000CE0101963C01F6019381F70193FD85918A
:101A100093FF81917F01882309F4BAC1853239F49B
:101A200093FD859193FF81917F01853229F4B60161
:101A300090E00E94E80EE7CF912C212C312CFFE1A1
:101A4000F315D8F08B3279F038F4803279F08332A4
:101A5000A1F4232D20611DC08D3261F0803369F423
:101A6000232D216016C0832D8260382EE32DE46083
:101A70003E2E2AC0F32DF8601DC037FC2DC020ED8E
:101A8000280F2A3040F08E32B9F436FC81C1232D64
:101A90002064322E19C036FE06C08AE0989E200DC2
:101AA0001124922E11C0EAE02E9E200D1124222E28
:101AB000F32DF0623F2E08C08C3621F4832D806810
:101AC000382E02C0883641F4F70193FD859193FFCB
:101AD00081917F018111B3CF982F9F7D95549330D1
:101AE00028F40C5F1F4F9FE399830DC0833631F0BC
:101AF000833771F0833509F059C021C0F801808126
:101B000089830E5F1F4F88248394912C530113C047
:101B10002801F2E04F0E511CF801A080B18036FE82
:101B200003C0692D70E002C06FEF7FEFC5010E9416
:101B3000DD0E4C018201F32DFF773F2E16C02801E8
:101B400022E0420E511CF801A080B18036FE03C095
:101B5000692D70E002C06FEF7FEFC5010E94D20EC9
:101B60004C01F32DF0683F2E820133FC1BC0822D07
:101B700090E088169906B0F4B60180E290E00E94E9
:101B8000E80E2A94F4CFF50137FC859137FE819158
:101B90005F01B60190E00E94E80E21102A9421E036
:101BA000821A91088114910471F7E8C0843611F00B
:101BB000893641F5F80137FE07C060817181828165
:101BC00093810C5F1F4F08C060817181072E000C4C
:101BD000880B990B0E5F1F4FF32DFF763F2E97FF5B
:101BE00009C090958095709561957F4F8F4F9F4F5D
:101BF000F0683F2E2AE030E0A3010E94240F882ED7
:101C0000861845C0853731F4232D2F7EB22E2AE069
:101C100030E025C0932D997FB92E8F36C1F018F48E
:101C2000883579F0B5C0803719F0883721F0B0C019
:101C3000E92FE061BE2EB4FE0DC0FB2DF460BF2E77
:101C400009C034FE0AC0292F2660B22E06C028E043
:101C500030E005C020E130E002C020E132E0F801D0
:101C6000B7FE07C060817181828193810C5F1F4F35
:101C700006C06081718180E090E00E5F1F4FA3017C
:101C80000E94240F882E8618FB2DFF773F2E36FEEC
:101C90000DC0232D2E7FA22E891458F434FE0BC0C4
:101CA00032FC09C0832D8E7EA82E05C0B82CA32C33
:101CB00003C0B82C01C0B92CA4FE0FC0FE01E80D72
:101CC000F11D8081803321F49A2D997EA92E09C0BF
:101CD000A2FE06C0B394B39404C08A2D867809F09E
:101CE000B394A3FC11C0A0FE06C0B21488F4280C63
:101CF000922C9B180EC0B21460F4B60180E290E002
:101D00000E94E80EB394F7CFB21418F42B1802C057
:101D1000982C212CA4FE10C0B60180E390E00E9414
:101D2000E80EA2FE17C0A1FC03C088E790E002C045
:101D300088E590E0B6010CC08A2D867859F0A1FEA6
:101D400002C08BE201C080E2A7FC8DE2B60190E008
:101D50000E94E80E891438F4B60180E390E00E94F6
:101D6000E80E9A94F7CF8A94F301E80DF11D808173
:101D7000B60190E00E94E80E8110F5CF222009F410
:101D800042CEB60180E290E00E94E80E2A94F6CF9F
:101D9000F6018681978102C08FEF9FEF2B96E2E1DB
:101DA0000C949E0FFC010590615070400110D8F713
:101DB000809590958E0F9F1F0895FC016150704093
:101DC00001900110D8F7809590958E0F9F1F089570
:101DD0000F931F93CF93DF93FB01238121FD03C05A
:101DE0008FEF9FEF2CC022FF16C0468157812481C0
:101DF00035814217530744F4A081B1819D012F5FC3
:101E00003F4F318320838C93268137812F5F3F4F53
:101E10003783268314C08B01EC01FB010084F1851C
:101E2000E02D0995892BE1F6D80116968D919C91AC
:101E30001797019617969C938E931697CE01DF9174
:101E4000CF911F910F910895FA01AA27283051F1DF
:101E5000203181F1E8946F936E7F6E5F7F4F8F4FDB
:101E60009F4FAF4FB1E03ED0B4E03CD0670F781F3A
:101E7000891F9A1FA11D680F791F8A1F911DA11D1F
:101E80006A0F711D811D911DA11D20D009F4689458
:101E90003F912AE0269F11243019305D3193DEF600
:101EA000CF010895462F4770405D4193B3E00FD0B6
:101EB000C9F7F6CF462F4F70405D4A3318F0495DA1
:101EC00031FD4052419302D0A9F7EACFB4E0A69584
:101ED0009795879577956795BA95C9F700976105A6
:101EE000710508959B01AC010A2E069457954795FC
:101EF00037952795BA95C9F7620F731F841F951FF1
:101F0000A01D08952F923F924F925F926F927F9201
:101F10008F929F92AF92BF92CF92DF92EF92FF92F9
:101F20000F931F93CF93DF93CDB7DEB7CA1BDB0BA5
:101F30000FB6F894DEBF0FBECDBF09942A8839884A
:101F400048885F846E847D848C849B84AA84B98451
:101F5000C884DF80EE80FD800C811B81AA81B9815D
:101F6000CE0FD11D0FB6F894DEBF0FBECDBFED0171
:061F70000895F894FFCF74
:101F760054656D707261747572653A2000000000D8
:101F860046616E2053706565643A200000000000CB
:101F9600010002000102030300000000082575008D
:101FA6002043656C65736975732000202520000049
:00000001FF
